S01600007465737420284144432B4C4344292E7372656317
S11300000C94A7000C94BC000C94BC000C94BC0091
S11300100C94BC000C94BC000C94BC000C94BC006C
S11300200C94BC000C94BC000C94BC000C94BC005C
S11300300C94BC000C94BC000C94BC000C94BC004C
S11300400C94BC000C94BC000C94BC000C94BC003C
S11300500C94BC0000407A10F35A00A0724E1809A8
S11300600010A5D4E80000E87648170000E40B541B
S1130070020000CA9A3B000000E1F50500008096EA
S11300809800000040420F000000A086010000001C
S1130090102700000000E8030000000064000000D6
S11300A000000A00000000000100000000002C769F
S11300B0D888DC674F0823DFC1DFAE59E1B1B796BA
S11300C0E5E3E453C63AE651997696E8E6C2842617
S11300D0EB898C9B62ED407C6FFCEFBC9C9F40F2F3
S11300E0BAA56FA5F490055A2AF75C936B6CF9676F
S11300F06DC11BFCE0E40D47FEF520E6B500D0ED34
S1130100902E0300943577050080841E080000209B
S11301104E0A000000C80C333333330F986E128339
S11301201141EF8D2114893BE65516CFFEE6DB180D
S1130130D1844B381BF77C1D901DA4BBE4242032D2
S113014084725E228100C9F124ECA1E53D271124CB
S11301501FBECFE5D8E0DEBFCDBF10E0A0E6B0E023
S1130160EEE6FAE002C005900D92AA36B107D9F77F
S11301700E9492010C9435050C940000379A329831
S11301803198309A3F983E9A3D9A08959AB321E067
S113019030E002C0220F331F8A95E2F720959223A4
S11301A09ABB369A86B185B10895882314F4979A38
S11301B001C0979886FF02C0969A01C0969885FF61
S11301C002C0959A01C0959884FF02C0949A01C018
S11301D0949881E00895CF93C82FA898A9980E9475
S11301E0D500AA9A2DE02A95F1F70000AA988FEF7E
S11301F08C0F823038F48FE99FE00197F1F700C04B
S1130200000006C087EC90E00197F1F700C0000001
S11302108C2F8295807F0E94D500AA9A9DE09A95A2
S1130220F1F70000AA9887EC90E00197F1F700C07D
S113023000009FEF20E782E0915020408040E1F7EA
S113024000C00000CF910895CF93C82FA89AA99811
S11302500E94D500AA9A8DE08A95F1F70000AA9829
S113026087EC90E00197F1F700C000008C2F829595
S1130270807F0E94D500AA9A9DE09A95F1F700002C
S1130280AA9887EC90E00197F1F700C0000081E0A4
S1130290CF910895CF93DF9300D0CDB7DEB790E828
S11302A0998390EC9A83FE01E80FF11D8181860FFA
S11302B00E94EB000F900F90DF91CF9108951F9350
S11302C0CF93DF93EC018881882351F010E00E94E2
S11302D024011F5FFE01E10FF11D80818111F7CF21
S11302E0DF91CF911F910895A29AA09AA19A8F9A13
S11302F08E9A8D9A8C9A8FE295E70197F1F700C058
S1130300000083E30E94EB0082E30E94EB0088E29A
S11303100E94EB008CE00E94EB0081E00E94EB0065
S113032081E00895CF93DF93CDB7DEB764970FB61E
S1130330F894DEBF0FBECDBF0E9474010E94BE00C0
S11303408FEF87BB80E690E00E945F0180E00E940F
S1130350C60088BB6BE080E00E944A0180E00E94F6
S1130360C600682F70E080E090E00E94320220E036
S113037030E04CE452E40E94C8018E010F5F1F4F2D
S11303802AE04AE00E94BE02C8010E945F01DECF5B
S11303900CD0BAC0B2D040F0A9D030F021F45F3F05
S11303A019F09BC05111E4C09EC0BFD098F39923AB
S11303B0C9F35523B1F3951B550BBB27AA27621725
S11303C07307840738F09F5F5F4F220F331F441F6A
S11303D0AA1FA9F333D00E2E3AF0E0E830D09150A2
S11303E05040E695001CCAF729D0FE2F27D0660F8F
S11303F0771F881FBB1F261737074807AB07B0E8CE
S113040009F0BB0B802DBF01FF2793585F4F2AF0E3
S11304109E3F510568F061C0ABC05F3FECF3983E6E
S1130420DCF3869577956795B795F7959F5FC9F740
S1130430880F911D9695879597F90895E1E0660FC9
S1130440771F881FBB1F621773078407BA0720F042
S1130450621B730B840BBA0BEE1F88F7E0950895AB
S1130460E89409C097FB3EF490958095709561954A
S11304707F4F8F4F9F4F9923A9F0F92F96E9BB2700
S11304809395F695879577956795B795F111F8CF7C
S1130490FAF4BB0F11F460FF1BC06F5F7F4F8F4FE7
S11304A09F4F16C0882311F096E911C0772321F0DD
S11304B09EE8872F762F05C0662371F096E8862F75
S11304C070E060E02AF09A95660F771F881FDAF7CC
S11304D0880F9695879597F9089597F99F6780E80F
S11304E070E060E008959FEF80EC089500240A9482
S11304F01616170618060906089500240A941216FB
S11305001306140605060895092E0394000C11F42D
S1130510882352F0BB0F40F4BF2B11F460FF04C0DA
S11305206F5F7F4F8F4F9F4F089557FD9058440F33
S1130530551F59F05F3F71F04795880F97FB991F3E
S113054061F09F3F79F087950895121613061406FB
S1130550551FF2CF4695F1DF08C016161706180688
S1130560991FF1CF86957105610508940895E89463
S1130570BB2766277727CB0197F90895EF920F934E
S11305801F93CF93DF93E80147FF02C034E101C01A
S113059034E0E42FFF27E7FDF095F7FF03C0F19562
S11305A0E195F109E32E022F2E2FAE010E94DF0206
S11305B0CE01DF91CF911F910F91EF9008956F922B
S11305C07F929F92AF92BF92CF92DF92EF92FF926F
S11305D00F931F93CF93DF93CDB7DEB729970FB651
S11305E0F894DEBF0FBECDBF6A01B22E102F0C33BC
S11305F020F4FF24F394F00E02C04CE3F42E0F2DEC
S113060027E0AE014F5F5F4F0E945D047981272F81
S11306102970213031F0E1FC06C0E0FC06C060E046
S113062005C06DE203C06BE201C060E2AE2DA071B3
S113063073FF36C0662311F084E001C083E08B159C
S113064010F4B81A01C0B12CA1110BC0F6018B2D06
S113065090E2882319F091938150FBCFCB0CD11CED
S1130660B12C662331F0F601608396012F5F3F4F72
S11306706901C6010396E2FE05C02EE4F60120835B
S113068031E404C02EE6F601208331E6318322836F
S1130690FC012B2D30E22223F1F131932150FBCFC9
S11306A072FF40C0662311F084E001C083E08B1523
S11306B010F4B81A01C0B12CA1110BC0F6018B2D96
S11306C090E2882319F091938150FBCFCB0CD11C7D
S11306D0B12C662331F0F601608396012F5F3F4F02
S11306E06901C6010396E2FE07C029E4F6012083EE
S11306F02EE4218326E406C029E6F60120832EE6B3
S1130700218326E62283FC012B2D30E2222319F0DB
S113071031932150FBCFFC01EB0DF11D10828EEFC4
S11307209FEFB7C0B1E0611101C0B0E04B2F50E0C2
S11307301816190624F49C012F5F3F4F02C021E0D4
S113074030E0240F351F112329F0412F50E04F5F73
S11307505F4F02C040E050E0420F531F2B2D30E0AA
S11307604217530714F4B41A01C0B12C2E2D28716A
S113077059F4F6012B2D30E2222319F03193215044
S1130780FBCFCB0CD11CB12CBB2331F0F601608321
S113079096012F5F3F4F6901A1110BC0F6012B2D6C
S11307A030E3222319F031932150FBCFCB0CD11C21
S11307B0B12CF80E0A81372F3071A32E74FF03C0B9
S11307C0013309F4FA941F142CF42F2D293018F056
S11307D028E001C021E0682F392F97FF02C060E0B4
S11307E030E0462F532F612C712C3EE2932EBC0136
S11307F0621B71099B01DC01A41BB50BE1E0F0E075
S1130800EC0FFD1FAE0FBF1FE12EF12CF194E1940C
S1130810F1084F3FFFEF5F0731F4F6019082B60114
S11308206F5F7F4F6B01841795074CF024173507D2
S113083034F4BD01660D771DFB01118101C010E385
S113084041505109FFEF6F1A7F0AB6016F5F7F4F66
S11308504E155F0524F0F60110836B01DACF4817BB
S1130860590739F4063320F4053319F4A11001C0F3
S113087011E3F6011083FB018B2D90E2882319F01C
S113088091938150FBCFFB01EB0DF11D108280E0B1
S113089090E029960FB6F894DEBF0FBECDBFDF916E
S11308A0CF911F910F91FF90EF90DF90CF90BF9069
S11308B0AF909F907F906F900895283008F027E0C4
S11308C03327DA01990F311D87FD91600096610588
S11308D0710539F432602E5F3D9330E32A95E1F7D8
S11308E008959F3F30F080387105610509F03C5F41
S11308F03C5F3D93913008F08068911DDF93CF9366
S11309001F930F93FF92EF92192F987F9695E92FDB
S113091096959695E90FFF27E255FF4F99273327C0
S1130920EE24FF24A701E70105900894079428F416
S1130930360FE71EF81E491F511D660F771F881FCB
S1130940991F0694A1F70590079428F4E70EF81E62
S1130950491F561FC11D770F881F991F661F0694D4
S1130960A1F70590079428F4F80E491F561FC71FD6
S1130970D11D880F991F661F771F0694A1F7059054
S1130980079420F4490F561FC71FD81F990F661FDD
S1130990771F881F0694A9F784911095177041F06A
S11309A0D695C79557954795F794E7941A95C1F747
S11309B0E4E5F0E068941590159135916591959171
S11309C005907FE27395E118F10A430B560BC90BAE
S11309D0D009C0F7E10CF11E431F561FC91FD01DDB
S11309E07EF4703311F48A95E6CFE894015030F028
S11309F0080F0AF40027021708F4202F2395022F6A
S1130A007A3328F079E37D932A95E9F710C07D9332
S1130A102A9589F6069497956795379517951794AF
S1130A20E118F10A430B560BC90BD00998F0239532
S1130A307E9173957A3308F070E37C932013B8F7B2
S1130A407E9170617D9330F0839571E37D9370E3C3
S1130A502A95E1F71124EF90FF900F911F91CF9108
S1110A60DF91992787FD90950895F894FFCFB4
S10D0A6E566F6C74616765203D004B
S9030000FC
